{"abi":[{"type":"constructor","inputs":[{"name":"_goal","type":"uint256","internalType":"uint256"}],"stateMutability":"nonpayable"},{"type":"function","name":"cancelFundraiser","inputs":[],"outputs":[],"stateMutability":"nonpayable"},{"type":"function","name":"canceled","inputs":[],"outputs":[{"name":"","type":"bool","internalType":"bool"}],"stateMutability":"view"},{"type":"function","name":"contribute","inputs":[],"outputs":[],"stateMutability":"payable"},{"type":"function","name":"contributions","inputs":[{"name":"","type":"address","internalType":"address"}],"outputs":[{"name":"","type":"uint256","internalType":"uint256"}],"stateMutability":"view"},{"type":"function","name":"goal","inputs":[],"outputs":[{"name":"","type":"uint256","internalType":"uint256"}],"stateMutability":"view"},{"type":"function","name":"goalReached","inputs":[],"outputs":[{"name":"","type":"bool","internalType":"bool"}],"stateMutability":"view"},{"type":"function","name":"owner","inputs":[],"outputs":[{"name":"","type":"address","internalType":"address"}],"stateMutability":"view"},{"type":"function","name":"payout","inputs":[],"outputs":[],"stateMutability":"nonpayable"},{"type":"function","name":"renounceOwnership","inputs":[],"outputs":[],"stateMutability":"nonpayable"},{"type":"function","name":"succeeded","inputs":[],"outputs":[{"name":"","type":"bool","internalType":"bool"}],"stateMutability":"view"},{"type":"function","name":"totalContributed","inputs":[],"outputs":[{"name":"","type":"uint256","internalType":"uint256"}],"stateMutability":"view"},{"type":"function","name":"transferOwnership","inputs":[{"name":"newOwner","type":"address","internalType":"address"}],"outputs":[],"stateMutability":"nonpayable"},{"type":"function","name":"withdraw","inputs":[],"outputs":[],"stateMutability":"nonpayable"},{"type":"event","name":"CampaignCancelled","inputs":[],"anonymous":false},{"type":"event","name":"ContributionReceived","inputs":[{"name":"contributor","type":"address","indexed":false,"internalType":"address"},{"name":"amount","type":"uint256","indexed":false,"internalType":"uint256"}],"anonymous":false},{"type":"event","name":"GoalReached","inputs":[{"name":"totalContributed","type":"uint256","indexed":false,"internalType":"uint256"}],"anonymous":false},{"type":"event","name":"MoneyWithdrawn","inputs":[{"name":"contributor","type":"address","indexed":false,"internalType":"address"},{"name":"amount","type":"uint256","indexed":false,"internalType":"uint256"}],"anonymous":false},{"type":"event","name":"OwnershipTransferred","inputs":[{"name":"previousOwner","type":"address","indexed":true,"internalType":"address"},{"name":"newOwner","type":"address","indexed":true,"internalType":"address"}],"anonymous":false},{"type":"event","name":"Payout","inputs":[{"name":"receiver","type":"address","indexed":false,"internalType":"address"},{"name":"amount","type":"uint256","indexed":false,"internalType":"uint256"}],"anonymous":false},{"type":"error","name":"OwnableInvalidOwner","inputs":[{"name":"owner","type":"address","internalType":"address"}]},{"type":"error","name":"OwnableUnauthorizedAccount","inputs":[{"name":"account","type":"address","internalType":"address"}]}],"bytecode":{"object":"0x608060405234801561001057600080fd5b50604051610a76380380610a7683398101604081905261002f91610108565b338061005657604051631e4fbdf760e01b8152600060048201526024015b60405180910390fd5b61005f816100b8565b50600081116100b05760405162461bcd60e51b815260206004820152601b60248201527f476f616c206d7573742062652067726561746572207468616e20300000000000604482015260640161004d565b600155610121565b600080546001600160a01b038381166001600160a01b0319831681178455604051919092169283917f8be0079c531659141344cd1fd0a4f28419497f9722a3daafe3b4186f6b6457e09190a35050565b60006020828403121561011a57600080fd5b5051919050565b610946806101306000396000f3fe6080604052600436106100c25760003560e01c8063715018a61161007f578063934152501161005957806393415250146101e057806399087d34146101ff578063d7bb99ba14610214578063f2fde38b1461021c57600080fd5b8063715018a6146101895780637d3d65221461019e5780638da5cb5b146101b857600080fd5b8063023f4147146100c75780633ccfd60b146100f05780633f9942ff14610107578063401938831461013157806342e94c901461014757806363bd1d4a14610174575b600080fd5b3480156100d357600080fd5b506100dd60025481565b6040519081526020015b60405180910390f35b3480156100fc57600080fd5b5061010561023c565b005b34801561011357600080fd5b506004546101219060ff1681565b60405190151581526020016100e7565b34801561013d57600080fd5b506100dd60015481565b34801561015357600080fd5b506100dd6101623660046108b9565b60036020526000908152604090205481565b34801561018057600080fd5b50610105610386565b34801561019557600080fd5b5061010561052c565b3480156101aa57600080fd5b506001546002541015610121565b3480156101c457600080fd5b506000546040516001600160a01b0390911681526020016100e7565b3480156101ec57600080fd5b5060045461012190610100900460ff1681565b34801561020b57600080fd5b50610105610540565b61010561064a565b34801561022857600080fd5b506101056102373660046108b9565b6107fe565b3360009081526003602052604090205461029d5760405162461bcd60e51b815260206004820152601c60248201527f4e6f20636f6e747269627574696f6e7320746f2077697468647261770000000060448201526064015b60405180910390fd5b600454610100900460ff16156103085760405162461bcd60e51b815260206004820152602a60248201527f596f75722066756e6473207765726520616c7265616479207573656420746f20604482015269627579206120636f726560b01b6064820152608401610294565b33600081815260036020526040808220805490839055905190929183156108fc02918491818181858888f19350505050158015610349573d6000803e3d6000fd5b5060408051338152602081018390527fe020566b3b7b0c11a72c9a01a70122b5bb1e70d24128480342bad5367fbf54e2910160405180910390a150565b60015460025410156103d15760405162461bcd60e51b815260206004820152601460248201527311dbd85b081b9bdd081c995858da1959081e595d60621b6044820152606401610294565b600454610100900460ff16156104225760405162461bcd60e51b815260206004820152601660248201527510dbdc9948185b1c9958591e481c1d5c98da185cd95960521b6044820152606401610294565b60045460ff16156104755760405162461bcd60e51b815260206004820152601c60248201527f5468652066756e6472616973696e67207761732063616e63656c6564000000006044820152606401610294565b6004805461ff0019166101001790556104966000546001600160a01b031690565b6001600160a01b03166108fc6002549081150290604051600060405180830381858888f193505050501580156104d0573d6000803e3d6000fd5b507f5afeca38b2064c23a692c4cf353015d80ab3ecc417b4f893f372690c11fbd9a66105046000546001600160a01b031690565b600254604080516001600160a01b0390931683526020830191909152015b60405180910390a1565b61053461083c565b61053e6000610869565b565b61054861083c565b600454610100900460ff16156105bf5760405162461bcd60e51b815260206004820152603660248201527f46756e6472616973696e6720697320616c72656164792066696e697368656420604482015275185b990818d85b9b9bdd0818994818d85b98d95b195960521b6064820152608401610294565b60045460ff16156106125760405162461bcd60e51b815260206004820152601f60248201527f46756e6472616973696e6720697320616c72656164792063616e63656c6564006044820152606401610294565b6004805460ff191660011790556040517f123d4f203b2b83bfe9f45903402bb88193cc56a43371d97ab5a51bd1817d858690600090a1565b60045460ff161561069d5760405162461bcd60e51b815260206004820152601c60248201527f5468652066756e6472616973696e67207761732063616e63656c6564000000006044820152606401610294565b600034116106f95760405162461bcd60e51b815260206004820152602360248201527f436f6e747269627574696f6e206d75737420626520677265617465722074686160448201526206e20360ec1b6064820152608401610294565b6001546002541061074c5760405162461bcd60e51b815260206004820152601d60248201527f476f616c2068617320616c7265616479206265656e20726561636865640000006044820152606401610294565b336000908152600360205260409020546107679034906108e9565b336000908152600360205260409020556002546107859034906108e9565b600255604080513381523460208201527f1bb460ccaaf70fbacfec17a376f8acbd278c1405590ffcc8ebe4b88daf4f64ad910160405180910390a16001546002541061053e577ffbfd8ab7c24300fa9888cd721c8565a7da56759384781283684dcf7c7c4a846b60025460405161052291815260200190565b61080661083c565b6001600160a01b03811661083057604051631e4fbdf760e01b815260006004820152602401610294565b61083981610869565b50565b6000546001600160a01b0316331461053e5760405163118cdaa760e01b8152336004820152602401610294565b600080546001600160a01b038381166001600160a01b0319831681178455604051919092169283917f8be0079c531659141344cd1fd0a4f28419497f9722a3daafe3b4186f6b6457e09190a35050565b6000602082840312156108cb57600080fd5b81356001600160a01b03811681146108e257600080fd5b9392505050565b8082018082111561090a57634e487b7160e01b600052601160045260246000fd5b9291505056fea264697066735822122092f4ab10c6d546cdebeeda7fded8d8a3432ff7eef90da82068c4e518d722438f64736f6c63430008180033","linkReferences":{}},"methodIdentifiers":{"cancelFundraiser()":"99087d34","canceled()":"3f9942ff","contribute()":"d7bb99ba","contributions(address)":"42e94c90","goal()":"40193883","goalReached()":"7d3d6522","owner()":"8da5cb5b","payout()":"63bd1d4a","renounceOwnership()":"715018a6","succeeded()":"93415250","totalContributed()":"023f4147","transferOwnership(address)":"f2fde38b","withdraw()":"3ccfd60b"},"id":5}