{"abi":[{"type":"function","name":"cancelFundraiser","inputs":[],"outputs":[],"stateMutability":"nonpayable"},{"type":"function","name":"canceled","inputs":[],"outputs":[{"name":"","type":"bool","internalType":"bool"}],"stateMutability":"view"},{"type":"function","name":"contribute","inputs":[],"outputs":[],"stateMutability":"payable"},{"type":"function","name":"contributions","inputs":[{"name":"","type":"address","internalType":"address"}],"outputs":[{"name":"","type":"uint256","internalType":"uint256"}],"stateMutability":"view"},{"type":"function","name":"goal","inputs":[],"outputs":[{"name":"","type":"uint256","internalType":"uint256"}],"stateMutability":"view"},{"type":"function","name":"goalReached","inputs":[],"outputs":[{"name":"","type":"bool","internalType":"bool"}],"stateMutability":"view"},{"type":"function","name":"initialize","inputs":[{"name":"_goal","type":"uint256","internalType":"uint256"}],"outputs":[],"stateMutability":"nonpayable"},{"type":"function","name":"owner","inputs":[],"outputs":[{"name":"","type":"address","internalType":"address"}],"stateMutability":"view"},{"type":"function","name":"payout","inputs":[],"outputs":[],"stateMutability":"nonpayable"},{"type":"function","name":"renounceOwnership","inputs":[],"outputs":[],"stateMutability":"nonpayable"},{"type":"function","name":"succeeded","inputs":[],"outputs":[{"name":"","type":"bool","internalType":"bool"}],"stateMutability":"view"},{"type":"function","name":"totalContributed","inputs":[],"outputs":[{"name":"","type":"uint256","internalType":"uint256"}],"stateMutability":"view"},{"type":"function","name":"transferOwnership","inputs":[{"name":"newOwner","type":"address","internalType":"address"}],"outputs":[],"stateMutability":"nonpayable"},{"type":"function","name":"withdraw","inputs":[],"outputs":[],"stateMutability":"nonpayable"},{"type":"event","name":"CampaignCancelled","inputs":[],"anonymous":false},{"type":"event","name":"ContributionReceived","inputs":[{"name":"contributor","type":"address","indexed":false,"internalType":"address"},{"name":"amount","type":"uint256","indexed":false,"internalType":"uint256"}],"anonymous":false},{"type":"event","name":"GoalReached","inputs":[{"name":"totalContributed","type":"uint256","indexed":false,"internalType":"uint256"}],"anonymous":false},{"type":"event","name":"Initialized","inputs":[{"name":"version","type":"uint64","indexed":false,"internalType":"uint64"}],"anonymous":false},{"type":"event","name":"MoneyWithdrawn","inputs":[{"name":"contributor","type":"address","indexed":false,"internalType":"address"},{"name":"amount","type":"uint256","indexed":false,"internalType":"uint256"}],"anonymous":false},{"type":"event","name":"OwnershipTransferred","inputs":[{"name":"previousOwner","type":"address","indexed":true,"internalType":"address"},{"name":"newOwner","type":"address","indexed":true,"internalType":"address"}],"anonymous":false},{"type":"event","name":"Payout","inputs":[{"name":"receiver","type":"address","indexed":false,"internalType":"address"},{"name":"amount","type":"uint256","indexed":false,"internalType":"uint256"}],"anonymous":false},{"type":"error","name":"InvalidInitialization","inputs":[]},{"type":"error","name":"NotInitializing","inputs":[]},{"type":"error","name":"OwnableInvalidOwner","inputs":[{"name":"owner","type":"address","internalType":"address"}]},{"type":"error","name":"OwnableUnauthorizedAccount","inputs":[{"name":"account","type":"address","internalType":"address"}]}],"bytecode":{"object":"0x608060405234801561001057600080fd5b50610ba6806100206000396000f3fe6080604052600436106100dd5760003560e01c80637d3d65221161007f57806399087d341161005957806399087d341461021f578063d7bb99ba14610234578063f2fde38b1461023c578063fe4b84df1461025c57600080fd5b80637d3d6522146101b95780638da5cb5b146101d3578063934152501461020057600080fd5b806340193883116100bb578063401938831461014c57806342e94c901461016257806363bd1d4a1461018f578063715018a6146101a457600080fd5b8063023f4147146100e25780633ccfd60b1461010b5780633f9942ff14610122575b600080fd5b3480156100ee57600080fd5b506100f860015481565b6040519081526020015b60405180910390f35b34801561011757600080fd5b5061012061027c565b005b34801561012e57600080fd5b5060035461013c9060ff1681565b6040519015158152602001610102565b34801561015857600080fd5b506100f860005481565b34801561016e57600080fd5b506100f861017d366004610b00565b60026020526000908152604090205481565b34801561019b57600080fd5b506101206103c6565b3480156101b057600080fd5b50610120610558565b3480156101c557600080fd5b50600054600154101561013c565b3480156101df57600080fd5b506101e861056c565b6040516001600160a01b039091168152602001610102565b34801561020c57600080fd5b5060035461013c90610100900460ff1681565b34801561022b57600080fd5b5061012061059a565b6101206106a4565b34801561024857600080fd5b50610120610257366004610b00565b610858565b34801561026857600080fd5b50610120610277366004610b30565b610896565b336000908152600260205260409020546102dd5760405162461bcd60e51b815260206004820152601c60248201527f4e6f20636f6e747269627574696f6e7320746f2077697468647261770000000060448201526064015b60405180910390fd5b600354610100900460ff16156103485760405162461bcd60e51b815260206004820152602a60248201527f596f75722066756e6473207765726520616c7265616479207573656420746f20604482015269627579206120636f726560b01b60648201526084016102d4565b33600081815260026020526040808220805490839055905190929183156108fc02918491818181858888f19350505050158015610389573d6000803e3d6000fd5b5060408051338152602081018390527fe020566b3b7b0c11a72c9a01a70122b5bb1e70d24128480342bad5367fbf54e2910160405180910390a150565b60005460015410156104115760405162461bcd60e51b815260206004820152601460248201527311dbd85b081b9bdd081c995858da1959081e595d60621b60448201526064016102d4565b600354610100900460ff16156104625760405162461bcd60e51b815260206004820152601660248201527510dbdc9948185b1c9958591e481c1d5c98da185cd95960521b60448201526064016102d4565b60035460ff16156104b55760405162461bcd60e51b815260206004820152601c60248201527f5468652066756e6472616973696e67207761732063616e63656c65640000000060448201526064016102d4565b6003805461ff0019166101001790556104cc61056c565b6001600160a01b03166108fc6001549081150290604051600060405180830381858888f19350505050158015610506573d6000803e3d6000fd5b507f5afeca38b2064c23a692c4cf353015d80ab3ecc417b4f893f372690c11fbd9a661053061056c565b600154604080516001600160a01b0390931683526020830191909152015b60405180910390a1565b6105606109fb565b61056a6000610a2d565b565b7f9016d09d72d40fdae2fd8ceac6b6234c7706214fd39c1cd1e609a0528c199300546001600160a01b031690565b6105a26109fb565b600354610100900460ff16156106195760405162461bcd60e51b815260206004820152603660248201527f46756e6472616973696e6720697320616c72656164792066696e697368656420604482015275185b990818d85b9b9bdd0818994818d85b98d95b195960521b60648201526084016102d4565b60035460ff161561066c5760405162461bcd60e51b815260206004820152601f60248201527f46756e6472616973696e6720697320616c72656164792063616e63656c65640060448201526064016102d4565b6003805460ff191660011790556040517f123d4f203b2b83bfe9f45903402bb88193cc56a43371d97ab5a51bd1817d858690600090a1565b60035460ff16156106f75760405162461bcd60e51b815260206004820152601c60248201527f5468652066756e6472616973696e67207761732063616e63656c65640000000060448201526064016102d4565b600034116107535760405162461bcd60e51b815260206004820152602360248201527f436f6e747269627574696f6e206d75737420626520677265617465722074686160448201526206e20360ec1b60648201526084016102d4565b600054600154106107a65760405162461bcd60e51b815260206004820152601d60248201527f476f616c2068617320616c7265616479206265656e207265616368656400000060448201526064016102d4565b336000908152600260205260409020546107c1903490610b49565b336000908152600260205260409020556001546107df903490610b49565b600155604080513381523460208201527f1bb460ccaaf70fbacfec17a376f8acbd278c1405590ffcc8ebe4b88daf4f64ad910160405180910390a16000546001541061056a577ffbfd8ab7c24300fa9888cd721c8565a7da56759384781283684dcf7c7c4a846b60015460405161054e91815260200190565b6108606109fb565b6001600160a01b03811661088a57604051631e4fbdf760e01b8152600060048201526024016102d4565b61089381610a2d565b50565b7ff0c57e16840df040f15088dc2f81fe391c3923bec73e23a9662efc9c229c6a008054600160401b810460ff16159067ffffffffffffffff166000811580156108dc5750825b905060008267ffffffffffffffff1660011480156108f95750303b155b905081158015610907575080155b156109255760405163f92ee8a960e01b815260040160405180910390fd5b845467ffffffffffffffff19166001178555831561094f57845460ff60401b1916600160401b1785555b6000861161099f5760405162461bcd60e51b815260206004820152601b60248201527f476f616c206d7573742062652067726561746572207468616e2030000000000060448201526064016102d4565b60008690556109ad33610a9e565b83156109f357845460ff60401b19168555604051600181527fc7f505b2f371ae2175ee4913f4499e1f2633a7b5936321eed1cdaeb6115181d29060200160405180910390a15b505050505050565b33610a0461056c565b6001600160a01b03161461056a5760405163118cdaa760e01b81523360048201526024016102d4565b7f9016d09d72d40fdae2fd8ceac6b6234c7706214fd39c1cd1e609a0528c19930080546001600160a01b031981166001600160a01b03848116918217845560405192169182907f8be0079c531659141344cd1fd0a4f28419497f9722a3daafe3b4186f6b6457e090600090a3505050565b610aa6610aaf565b61089381610af8565b7ff0c57e16840df040f15088dc2f81fe391c3923bec73e23a9662efc9c229c6a0054600160401b900460ff1661056a57604051631afcd79f60e31b815260040160405180910390fd5b610860610aaf565b600060208284031215610b1257600080fd5b81356001600160a01b0381168114610b2957600080fd5b9392505050565b600060208284031215610b4257600080fd5b5035919050565b80820180821115610b6a57634e487b7160e01b600052601160045260246000fd5b9291505056fea264697066735822122005a56fdc843c20d9b8ab0478a4ad64276878693100c45a40872c44561e71ecf064736f6c63430008180033","linkReferences":{}},"methodIdentifiers":{"cancelFundraiser()":"99087d34","canceled()":"3f9942ff","contribute()":"d7bb99ba","contributions(address)":"42e94c90","goal()":"40193883","goalReached()":"7d3d6522","initialize(uint256)":"fe4b84df","owner()":"8da5cb5b","payout()":"63bd1d4a","renounceOwnership()":"715018a6","succeeded()":"93415250","totalContributed()":"023f4147","transferOwnership(address)":"f2fde38b","withdraw()":"3ccfd60b"},"id":5}