{"abi":[{"type":"function","name":"createFundraiser","inputs":[{"name":"goal","type":"uint256","internalType":"uint256"}],"outputs":[],"stateMutability":"nonpayable"},{"type":"function","name":"fundraisers","inputs":[{"name":"","type":"uint256","internalType":"uint256"}],"outputs":[{"name":"","type":"address","internalType":"contract Fundraiser"}],"stateMutability":"view"},{"type":"function","name":"getFundraisers","inputs":[],"outputs":[{"name":"","type":"address[]","internalType":"contract Fundraiser[]"}],"stateMutability":"view"}],"bytecode":{"object":"0x608060405234801561001057600080fd5b50610a97806100206000396000f3fe608060405234801561001057600080fd5b50600436106100415760003560e01c806311b8e3bd146100465780638e028d401461005b578063f38f72fb14610079575b600080fd5b61005961005436600461022b565b6100a4565b005b610063610192565b6040516100709190610244565b60405180910390f35b61008c61008736600461022b565b6101f4565b6040516001600160a01b039091168152602001610070565b600081336040516100b49061021e565b9182526001600160a01b03166020820152604001604051809103906000f0801580156100e4573d6000803e3d6000fd5b5060405163f2fde38b60e01b81523360048201529091506001600160a01b0382169063f2fde38b90602401600060405180830381600087803b15801561012957600080fd5b505af115801561013d573d6000803e3d6000fd5b5050600080546001810182559080527f290decd9548b62a8d60345a988386fc84ba6bc95484008f6362f93160ef3e5630180546001600160a01b0319166001600160a01b039490941693909317909255505050565b606060008054806020026020016040519081016040528092919081815260200182805480156101ea57602002820191906000526020600020905b81546001600160a01b031681526001909101906020018083116101cc575b5050505050905090565b6000818154811061020457600080fd5b6000918252602090912001546001600160a01b0316905081565b6107d08061029283390190565b60006020828403121561023d57600080fd5b5035919050565b6020808252825182820181905260009190848201906040850190845b818110156102855783516001600160a01b031683529284019291840191600101610260565b5090969550505050505056fe608060405234801561001057600080fd5b506040516107d03803806107d083398101604081905261002f91610112565b806001600160a01b03811661005f57604051631e4fbdf760e01b8152600060048201526024015b60405180910390fd5b610068816100c2565b50600082116100b95760405162461bcd60e51b815260206004820152601b60248201527f476f616c206d7573742062652067726561746572207468616e203000000000006044820152606401610056565b5060015561014f565b600080546001600160a01b038381166001600160a01b0319831681178455604051919092169283917f8be0079c531659141344cd1fd0a4f28419497f9722a3daafe3b4186f6b6457e09190a35050565b6000806040838503121561012557600080fd5b825160208401519092506001600160a01b038116811461014457600080fd5b809150509250929050565b6106728061015e6000396000f3fe6080604052600436106100915760003560e01c80637d3d6522116100595780637d3d65221461012e5780638da5cb5b1461015857806399087d3414610180578063d7bb99ba14610195578063f2fde38b1461019d57600080fd5b8063023f4147146100965780633ccfd60b146100bf57806340193883146100d657806342e94c90146100ec578063715018a614610119575b600080fd5b3480156100a257600080fd5b506100ac60025481565b6040519081526020015b60405180910390f35b3480156100cb57600080fd5b506100d46101bd565b005b3480156100e257600080fd5b506100ac60015481565b3480156100f857600080fd5b506100ac6101073660046105e5565b60046020526000908152604090205481565b34801561012557600080fd5b506100d46102fd565b34801561013a57600080fd5b506003546101489060ff1681565b60405190151581526020016100b6565b34801561016457600080fd5b506000546040516001600160a01b0390911681526020016100b6565b34801561018c57600080fd5b506100d4610311565b6100d46103b0565b3480156101a957600080fd5b506100d46101b83660046105e5565b61052a565b3360009081526004602052604090205461021e5760405162461bcd60e51b815260206004820152601c60248201527f4e6f20636f6e747269627574696f6e7320746f2077697468647261770000000060448201526064015b60405180910390fd5b60035460ff161561027f5760405162461bcd60e51b815260206004820152602560248201527f43616e6e6f7420776974686472617720616674657220676f616c2069732072656044820152641858da195960da1b6064820152608401610215565b33600081815260046020526040808220805490839055905190929183156108fc02918491818181858888f193505050501580156102c0573d6000803e3d6000fd5b5060408051338152602081018390527fe020566b3b7b0c11a72c9a01a70122b5bb1e70d24128480342bad5367fbf54e2910160405180910390a150565b610305610568565b61030f6000610595565b565b610319610568565b60035460ff16156103785760405162461bcd60e51b815260206004820152602360248201527f43616e6e6f742063616e63656c20616674657220676f616c20697320726561636044820152621a195960ea1b6064820152608401610215565b6003805460ff191660011790556040517f123d4f203b2b83bfe9f45903402bb88193cc56a43371d97ab5a51bd1817d858690600090a1565b6000341161040c5760405162461bcd60e51b815260206004820152602360248201527f436f6e747269627574696f6e206d75737420626520677265617465722074686160448201526206e20360ec1b6064820152608401610215565b60035460ff161561045f5760405162461bcd60e51b815260206004820152601d60248201527f476f616c2068617320616c7265616479206265656e20726561636865640000006044820152606401610215565b3360009081526004602052604090205461047a903490610615565b33600090815260046020526040902055600254610498903490610615565b600255604080513381523460208201527f1bb460ccaaf70fbacfec17a376f8acbd278c1405590ffcc8ebe4b88daf4f64ad910160405180910390a16001546002541061030f576003805460ff191660011790556002546040517ffbfd8ab7c24300fa9888cd721c8565a7da56759384781283684dcf7c7c4a846b916105209190815260200190565b60405180910390a1565b610532610568565b6001600160a01b03811661055c57604051631e4fbdf760e01b815260006004820152602401610215565b61056581610595565b50565b6000546001600160a01b0316331461030f5760405163118cdaa760e01b8152336004820152602401610215565b600080546001600160a01b038381166001600160a01b0319831681178455604051919092169283917f8be0079c531659141344cd1fd0a4f28419497f9722a3daafe3b4186f6b6457e09190a35050565b6000602082840312156105f757600080fd5b81356001600160a01b038116811461060e57600080fd5b9392505050565b8082018082111561063657634e487b7160e01b600052601160045260246000fd5b9291505056fea26469706673582212209b0383e74fc5114ec26f1004489bfa2ea6dcb2db2f21df7f8447b9157e5df78364736f6c63430008180033a2646970667358221220c6ac3f2b2b402a62cae1c29d42050b199b8c3ad733c47e4dbc07dbac739a637f64736f6c63430008180033","linkReferences":{}},"methodIdentifiers":{"createFundraiser(uint256)":"11b8e3bd","fundraisers(uint256)":"f38f72fb","getFundraisers()":"8e028d40"},"id":35}